:03000000020DF3FB
:0C0DF300787FE4F6D8FD75813D020E3AD1
:100C110044204368616E67652054696D65005F5FBC
:100C2100005F5F5F004F4B0054727920616761691B
:100C31006E2100C0F9A4B0999282F880908883C691
:100C4100A1868E010203750405066C07080964007C
:100C5100656E7257616974696E672E2E2E00506C35
:100C61006561736520696E70757420706173737747
:100C71006F7264210057656C636F6D6520746F201E
:100C8100796F7521005468652070617373776F7295
:100C910064206973206572726F722120706C6565C2
:100CA10061736520696E70757420616761696E2179
:100CB1000043206368616E676570617373776F725B
:020CC1006400CD
:100D6600440037FFFFFFFF50002001010101010190
:100D76000101010101010101010107323132333460
:100D860035360041004C00410036174100343B41E6
:100D960000311D41003B0041003500410033004158
:100DA60000320141003000013D01013BFA013A0ADF
:100DB60002300000013C0001220001230001240052
:100DC600012E005000000101010101010101010194
:100DD600010101010101012F00500010FFFFFFFF7B
:0C0DE600FFFFFFFFFFFFFFFFFFFFFFFF0D
:08138A007F217E42DEFEDFFC44
:011392002238
:1005DC00C291D2AFD2AD12136C1212DE1213601292
:1005EC00133112131D7BFF7A0C795F1211A17BFF63
:1005FC007A0C7954E4FDFF121175121309200803CB
:10060C000206F8120AA5900035E014601A14602452
:10061C001460362403704530030512035CC20312C8
:10062C0009E812100E803530093212138012035C67
:10063C00C20980283009257BFF7A0C79B2E4FDFFD2
:10064C00121175C209D20180133009107BFF7A0C8C
:10065C007911E4FDFF121175C209D20B90003BE039
:10066C0024FE602514603A14604F146064240470F6
:10067C007B30027812138012035C12138A7BFF7A90
:10068C000C791FE4FD7F02805E3002601213801231
:10069C00035C12138A7BFF7A0C791FE4FD7F0580C3
:1006AC004630024812138012035C12138A7BFF7AC5
:1006BC000C791FE4FD7F08802E300230121380125B
:1006CC00035C12138A7BFF7A0C79227D017F0380F5
:1006DC001630021812138012035C12138A7BFF7AF5
:1006EC000C79227D017F0A121175C20212002E12A2
:0506FC000B5C02060684
:10002E00200C030201C5C20C900035E0640170344F
:10003E0090004FE024F7601924C5601C243D702405
:10004E0090003BE004F0D202E0B406187401F08098
:10005E0013121140D209800C053DD209E53DB40BB7
:10006E0003753D0130085490004FE024E7602A24C8
:10007E00D4602C2405600302011B900035E004F0CF
:10008E00D209E490003BF0C201C20B900035E0B4FF
:10009E000402E4F01213808074C207D293806EC201
:1000AE0008E4900035F0C201C20B1213807BFF7A78
:1000BE000C7954E4FDFF121175805290004FE0123E
:1000CE0007E800FE0800F20C01161600F6180102F1
:1000DE001C010A4201124A010E5201065A00FA5E32
:1000EE000000011B7F0180227F02801E7F03801A89
:1000FE007F0480167F0580127F06800E7F07800AA0
:10010E007F0880067F098002E4FF120F60300152E3
:10011E0090004FE01207E801530801470C016B16DF
:10012E00014B1801571C015F4201674A01635201DE
:10013E005B5A014F5E000001707F0180227F0280BA
:10014E001E7F03801A7F0480167F0580127F068033
:10015E000E7F07800A7F0880067F098002E4FF1267
:10016E001090300B5290004FE01207E801A80801E2
:10017E009C0C01C01601A01801AC1C01B44201BCBC
:10018E004A01B85201B05A01A45E000001C57F01B8
:10019E0080227F02801E7F03801A7F0480167F05D7
:1001AE0080127F06800E7F07800A7F0880067F09F7
:0801BE008002E4FF120E7F2213
:100AA500E539D3953B40047F0180027F00E539C3DA
:100AB500953A50047E0180027E00EE4F7003020BD2
:100AC50057D200E53975F032A4FFAEF07C007DFF0A
:100AD50012073E8F39E53975F00A842430F508751B
:100AE500092EE53975F00A84E5F02430F50A750B11
:100AF5002B900036E0FF75F00A842430F50CEF7575
:100B0500F00A84E5F02430F50D900034E0FF75F02F
:100B15000A842430F50EEF75F00A84E5F02430F5EB
:100B25000F900031E0FF75F00A8475F00A84E5F056
:100B35002430F510EF75F00A84E5F02430F51175D1
:100B45001220E4F513300A0EC20AFB7A0079080276
:060B550011A1C200D293C1
:010B5B002277
:10035C00900035E07065750841750920A3E0FF75C4
:10036C00F00A842430F50AEF75F00A84E5F02430A5
:10037C00F50B750C2D900034E0FF75F00A842430D9
:10038C00F50DEF75F00A84E5F02430F50E750F2DA0
:10039C00900031E0FF75F00A8475F00A84E5F024D2
:1003AC0030F510EF75F00A84E5F02430F511E4F522
:1003BC0012FB7A007908FDFF121175900035E0648C
:1003CC000160030204AB750842750920900033E00C
:1003DC00FF75F00A842430F50AEF75F00A84E5F015
:1003EC002430F50B750C2D900032E0FF75F00A846B
:1003FC002430F50DEF75F00A84E5F02430F50E7518
:10040C000F2D900030E0FF75F00A842430F510EFCA
:10041C0075F00A84E5F02430F511751220E53D24C1
:10042C0030F513E4F514FB7A007908FDFF12117511
:10043C00750856750948750A20E53B75F0648424E7
:10044C0030F50BE53B75F00A8475F00A84E5F02471
:10045C0030F50CE53B75F00A84E5F02430F50D75AC
:10046C000E20750F5675104C751120E53A75F06419
:10047C00842430F512E53A75F00A8475F00A84E5A7
:10048C00F02430F513E53A75F00A84E5F02430F5E4
:0F049C0014E4F515FB7A0079087D01FF12117544
:0104AB00222E
:0A0CC3008B088A09890A8C0B8D0C3E
:100CCD00E4F50DF50EC3E50B64809480501CC3E470
:100CDD00950CF50CE4950BF50B050AE50A7002056C
:100CED000914F9742D12071A050EAE0BAF0C7C000A
:100CFD007D0A120793AF05AE0D050D740F2EF8A6E4
:100D0D0007AE0BAF0C7C007D0A1207938E0B8F0C78
:100D1D00D3E50C9400E50B6480948050CDE50D2552
:100D2D000EF50EAF0D150DD3EF64809480401D743C
:100D3D000F250DF8E62430FFAB08050AE50AAA09D0
:100D4D007002050914F9EF12071A80D7AB08AA092A
:080D5D00A90AE412071AAF0E07
:010D6500226B
:1009E800200503020AA47B017A0079511210CD4038
:1009F80003020AA1900051E0FCA3E0FDAE047804D4
:100A0800CEA2E713CE13D8F8FF900053EEF0A3EF71
:100A1800F0ED540FFFA3E4F0A3EFF07B017A007927
:100A280057900053E0FCA3E0FD120CC3AB070B7416
:100A3800572FF582E43400F583742EF0900055E0CA
:100A4800FEA3E0FF7C007D0A12072C7D101207939D
:100A5800900055EEF0A3EFF02430FFAE030B74576F
:100A68002EF582E43400F583EFF074572BF582E419
:100A78003400F5837463F00B74572BF582E434006B
:100A8800F583E4F07B107D01FF1212F47B017A00FC
:0C0A980079577D017F0612117512127C47
:010AA400222F
:101109008B0B8A0C890DAB0EAA0FA910120701606F
:10111900240510E5107002050F14F9120701FFAB41
:101129000B050DE50DAA0C7002050C14F912070147
:071139006F60D3C322D32233
:1011A1008B148A158916AB14AA15A91612070160AA
:1011B10016C2060516E5167002051514F912070187
:0811C100F5992006E180FB22F4
:100EF300200827750E00750F007510327B017A00EC
:100F0300793C121109500AD2087BFF7A0C7976805A
:100F1300067BFF7A0C79861211A190003CE06454A1
:100F2300703AA3E024D075F00AA4FFA3E024D02FE5
:100F3300900036F090003FE024D075F00AA4FFA3A0
:100F4300E024D02F900034F0900041E024D075F0DD
:0D0F53000AA4FFA3E024D02F900031F0226B
:1013090030041090004CE06003120EF3C204E49024
:04131900004CF02272
:0C136000759850758E11759CF7D2AC2268
:1012DE00538E7F5389F0438901758A33758CF5C21D
:0612EE008DD28CD2A92272
:1011C9007580FFE5A054F84522F5A074372522F56E
:1011D90082E43400F583E0F580E522C394035003EB
:0611E900052222E4F522BC
:0111EF0022DD
:03000B0002080EDA
:10080E00C0E0C0F0C083C082C0D075D000C000C0B0
:10081E0001C002C003C004C005C006C007758A33FC
:10082E00758CF51204AC1211C90531E53170020553
:10083E0030053CC394E8E5309403400E900031E05F
:10084E0004F0753000753100D20AE53CC394C840FF
:10085E0009753C00D205D203D204900031E0C39456
:10086E003C4008E4F0900034E004F0900034E0C323
:10087E00943C4008E4F0900036E004F0900036E03E
:10088E00C394184002E4F0900030E0C3943C400260
:10089E00E4F0900032E0C3943C4002E4F090003368
:1008AE00E0C394184002E4F0900030E0FFA3E0B5FE
:1008BE00071A900033E0FF900036E0B5070E900067
:1008CE0032E0FF900034E0B50702D207A2007207B3
:1008DE005002B293D007D006D005D004D003D00278
:0F08EE00D001D000D0D0D082D083D0F0D0E03273
:0300230002105078
:10105000C0E0C083C082C0D075D000C00730981EE9
:10106000C29890004CE0FF04F0743C2FF582E43409
:1010700000F583E599F0753000753100C2043099B0
:1010800004C299D206D007D0D0D082D083D0E0322B
:0A136C00759D01E4F5BD75BC8822F3
:03002B00020FB809
:100FB800C0E0C0F0C083C082C0D075BC0085BD3918
:100FC800E53975F00A84E5F0900C3493900039F017
:100FD800E53975F00A8475F00A84E5F0900C3493CD
:100FE800900038F0E53975F0648475F00A84E5F00E
:100FF800900C3493900037F075BC88D0D0D082D054
:0610080083D0F0D0E032BD
:10100E0030053EC205E53975F032A4FFAEF07C0026
:10101E007DFF12073E8F39E53975F00A842430F5CD
:10102E000875092EE53975F00A84E5F02430F50AC5
:10103E00750B76E4F50CFB7A0079087D01FF121131
:01104E00752C
:01104F00227E
:1011400090003BE024FE60121460141460191460D7
:101150001D2404701F90003380089000328003909B
:101160000030E0253DF022E53D253BF53B22E53D05
:05117000253AF53A22CA
:10109000E4F50CEF2430FF74322523F8EFF6F50B5E
:1010A0007B007A00790B7D01AF231211750523E5D2
:1010B00023B40618E4F5237B107D01FF1212F47BA4
:0C10C000FF7A0C79267D01E4FF12117507
:0110CC002201
:100F6000E4F52CF52DEF2430FF74252524F8EFF659
:100F7000F52C7B007A00792C7D01AF2412117505C8
:100F800024E52464067030F5247B107D01FF1212E5
:100F9000F4750E00750F007510327B007A0079250C
:100FA0001211095003D208221213807BFF7A0C79A8
:070FB00029E4FDFF12117599
:010FB7002217
:100E7F00E4F50CEF2430FF740D252EF8EFF6F50B8B
:100E8F007B007A00790B7D01AF2E121175052EE5CF
:100E9F002E6406704EE50D24D075F00AA4FFE50E02
:100EAF0024D02F900036F0E50F24D075F00AA4FF60
:100EBF00E51024D02F900034F0E51124D075F00AFE
:100ECF00A4FFE51224D02F900031F0E4F52E7B1013
:100EDF007D01FF1212F47BFF7A0C79267D01E4FF6E
:030EEF0012117568
:010EF20022DD
:1001C6008F0A900035E064017032E50A24926020BF
:1001D60024FC60152406702490003BE004F0D20253
:1001E600E0B406187401F08013121140D209800C95
:1001F600053DD209E53DB40B03753D01300851E5D7
:100206000A249C602914602C24F060030202AB903F
:100216000035E004F0D209E490003BF0C201C20BC5
:10022600900035E0B40402E4F01213808077C20730
:10023600D2938071C208E4900035F0C201C20B125D
:1002460013807BFF7A0C7954E4FDFF1211758055FB
:10025600E50AB40A00504E900264F8282873020298
:10026600A602028202028602028A02028E0202921C
:1002760002029602029A02029E0202A27F018022D6
:100286007F02801E7F03801A7F0480167F058012FE
:100296007F06800E7F07800A7F0880067F0980021E
:1002A600E4FF120F60300155E50AB40A00504E9083
:1002B60002BCF82828730202FE0202DA0202DE02FB
:1002C60002E20202E60202EA0202EE0202F2020280
:1002D600F60202FA7F0180227F02801E7F03801AC7
:1002E6007F0480167F0580127F06800E7F07800AB6
:1002F6007F0880067F098002E4FF121090300B55BC
:10030600E50AB40A00504E900314F8282873020335
:100316005602033202033602033A02033E02034246
:1003260002034602034A02034E0203527F01802261
:100336007F02801E7F03801A7F0480167F0580124D
:100346007F06800E7F07800A7F0880067F0980026D
:06035600E4FF120E7F22FD
:100B5C00E4F508E4F509E50825E025E02420F58214
:100B6C00E43400F583E5822509F582E43583F583C9
:100B7C00E0FFE50825E025E02400F582E43400F5EB
:100B8C0083E5822509F582E43583F583E0FE6F6009
:100B9C005BEE7020E50825E025E02444F582E43482
:100BAC000CF583E5822509F582E43583F583E4931E
:100BBC00FF1201C6E50825E025E02420F582E43487
:100BCC0000F583E5822509F582E43583F583E0FFA2
:100BDC00E50825E025E02400F582E43400F583E502
:100BEC00822509F582E43583F583EFF00509E509E3
:100BFC00C394045003020B620508E508C394045027
:040C0C0003020B5F75
:010C100022C1
:1004AC00532F03E52F14600F1460111460132403F1
:1004BC00701275A07F800D75A0BF800875A0DF80BD
:1004CC000375A0EFE52F25E025E02410F582E43438
:1004DC0000F583E025E0FFA2A0E4334FFFE52F25D4
:1004EC00E025E02410F582E43400F583EFF0E52FED
:1004FC0025E025E02411F582E43400F583E025E0C5
:10050C00FFA2A1E4334FFFE52F25E025E02411F5F0
:10051C0082E43400F583EFF0E52F25E025E024128A
:10052C00F582E43400F583E025E0FFA2A2E4334F2A
:10053C00FFE52F25E025E02412F582E43400F58355
:10054C00EFF0E52F25E025E02413F582E43400F5E7
:10055C0083E025E0FFA2A3E4334FFFE52F25E02540
:10056C00E02413F582E43400F583EFF0E4FFE52F8B
:10057C0025E025E02410F582E43400F583E5822F94
:10058C00F582E43583F583E0540FFE701DE52F25CD
:10059C00E025E02420F582E43400F583E5822FF594
:1005AC0082E43583F583E4F0801FBE0F1CE52F2514
:1005BC00E025E02420F582E43400F583E5822FF574
:0F05CC0082E43583F5837401F00FBF04A1052F7E
:0105DB0022FD
:030003000208FDF3
:1008FD00C0E0C0F0C083C082C0D075D000C000C0C1
:0D090D0001C002C003C004C005C006C00741
:10091A0012125AC3EF94CCEE945B4009D3EF949928
:10092A00EE94664005C2890209CD121238C3EF94CB
:10093A0033EE942B4009D3EF9400EE94364005C26F
:10094A00890209CD751900751A0012125AC3EF945B
:10095A00ACEE94034009D3EF946DEE94084004C2C0
:10096A00898060121238D3EF94ACEE94034010EFF2
:10097A00946DEE94085008E51BC313F51B8020D331
:10098A00EF94C5EE940F4013EF9485EE9414500B38
:10099A00E51BC313F51B431B808004C28980240511
:1009AA001AE51AC3940840A2744D2519F582E43455
:1009BA0000F583E51BF00519E519C394044088C2C4
:0309CA0089D20CC3
:1009CD00D007D006D005D004D003D002D001D0007E
:0B09DD00D0D0D082D083D0F0D0E03228
:09137600C2A18E8012137FD292F5
:01137F00224B
:10000E007580FFC2A0D2A1D292AF8012137FC2928E
:04001E00EF20E7F3F5
:0100220022BB
:0F134200AE0712000EC2A0121376C29202137FE2
:0F135100AE0712000ED2A0121376C29202137FC3
:1012C700C2AFED7004AC078004EF2440FCEC44800F
:0612D700FF121342D2AF2A
:0112DD0022EE
:101175008B168A178918C2AF1212C7AB16AA17A900
:101185001812070160130518E5187002051714F900
:0C119500120701FF12135180E2D2AF22BA
:1012F400C2AF1212C7AF031BEF60077F2012135156
:0513040080F3D2AF22CE
:0A138000C2AF7F01121342D2AF2268
:10131D007F381213427F0C1213427F061213427F45
:04132D000102134264
:0D12AF007F967E001212BCD2B57F017E003A
:0B12BC00EF1FAC0670011E4C70F62204
:101215001212B6C2B57FE67E031212BCD2B57F3B71
:101225007E001212BCA2B5920E7F2C7E011212B363
:02123500A20E07
:011237002294
:02129600AD07A2
:10129800E4FBC2B51212B8ED1392B51212AFEDC34A
:0612A80013FD0BBB08EC76
:0112AE00221D
:1011F000E4FBC2B57F011212B1A2B5E433FA1212B8
:10120000AFEAC43333335480FFEDC3134FFD0BBB40
:0412100008E0AF053E
:0112140022B7
:10127C00C2AF121215920D200D0A7FCC1212967F5E
:09128C0044121296D2AFA20DB378
:011295002236
:0610CD008B088A09890A64
:1010D300C2AF121215920D200D267FCC1212967FED
:1010E300BE1212961211F0A9071211F0EFFE7C0046
:1010F300E429FFEC3EAB08AA09A90A8FF01207C93D
:05110300D2AFA20DB304
:0111080022C4
:10133100D2B253890F438910C28EC2ABD288D2A8D0
:011341002289
:10123800E4F58DF58BD28E30B207E58DD394C2409C
:10124800F6C28EAF8DEFFEAD8B7C00E42DFFEC3E39
:02125800FE2274
:10125A00E4F58DF58BD28E20B207E58DD394C2408A
:10126A00F6C28EAF8DEFFEAD8B7C00E42DFFEC3E17
:02127A00FE2252
:100DFF000205DCE493A3F8E493A34003F68001F229
:100E0F0008DFF48029E493A3F85407240CC8C333F4
:100E1F00C4540F4420C8834004F456800146F6DFC3
:100E2F00E4800B0102040810204080900D66E47EE0
:100E3F00019360BCA3FF543F30E509541FFEE493B8
:100E4F00A360010ECF54C025E060A840B8E493A37F
:100E5F00FAE493A3F8E493A3C8C582C8CAC583CAAA
:100E6F00F0A3C8C582C8CAC583CADFE9DEE780BE62
:010DF2000000
:10070100BB010689828A83E0225002E722BBFE02F6
:09071100E32289828A83E4932229
:10071A00BB010689828A83F0225002F722BBFE01BE
:02072A00F322B8
:10072C00EF8DF0A4A8F0CF8CF0A428CE8DF0A42EE1
:02073C00FE229B
:10073E00BC000BBE0029EF8DF084FFADF022E4CC9F
:10074E00F875F008EF2FFFEE33FEEC33FCEE9DEC68
:10075E00984005FCEE9DFE0FD5F0E9E4CEFD22EDAE
:10076E00F8F5F0EE8420D21CFEADF075F008EF2FF8
:10077E00FFED33FD4007985006D5F0F222C398FDE9
:05078E000FD5F0EA2286
:10079300C2D5EC30E709B2D5E4C39DFDE49CFCEE81
:1007A30030E715B2D5E4C39FFFE49EFE12073EC3B4
:1007B300E49DFDE49CFC800312073E30D507C3E4AF
:0607C3009FFFE49EFE22F0
:1007C900BB010A89828A83F0E5F0A3F0225006F77B
:0F07D90009A7F01922BBFE06F3E5F009F3192278
:1007E800D083D082F8E4937012740193700DA3A3A0
:1007F80093F8740193F5828883E4737402936860B4
:06080800EFA3A3A380DFB3
:00000001FF
